{
  "_format": "hh-sol-artifact-1",
  "contractName": "NFTCollection",
  "sourceName": "contracts/NFTCollection.sol",
  "abi": [
    {
      "inputs": [
        {
          "internalType": "address",
          "name": "marketplaceAddress",
          "type": "address"
        }
      ],
      "stateMutability": "nonpayable",
      "type": "constructor"
    },
    {
      "inputs": [
        {
          "internalType": "address",
          "name": "sender",
          "type": "address"
        },
        {
          "internalType": "uint256",
          "name": "tokenId",
          "type": "uint256"
        },
        {
          "internalType": "address",
          "name": "owner",
          "type": "address"
        }
      ],
      "name": "ERC721IncorrectOwner",
      "type": "error"
    },
    {
      "inputs": [
        {
          "internalType": "address",
          "name": "operator",
          "type": "address"
        },
        {
          "internalType": "uint256",
          "name": "tokenId",
          "type": "uint256"
        }
      ],
      "name": "ERC721InsufficientApproval",
      "type": "error"
    },
    {
      "inputs": [
        {
          "internalType": "address",
          "name": "approver",
          "type": "address"
        }
      ],
      "name": "ERC721InvalidApprover",
      "type": "error"
    },
    {
      "inputs": [
        {
          "internalType": "address",
          "name": "operator",
          "type": "address"
        }
      ],
      "name": "ERC721InvalidOperator",
      "type": "error"
    },
    {
      "inputs": [
        {
          "internalType": "address",
          "name": "owner",
          "type": "address"
        }
      ],
      "name": "ERC721InvalidOwner",
      "type": "error"
    },
    {
      "inputs": [
        {
          "internalType": "address",
          "name": "receiver",
          "type": "address"
        }
      ],
      "name": "ERC721InvalidReceiver",
      "type": "error"
    },
    {
      "inputs": [
        {
          "internalType": "address",
          "name": "sender",
          "type": "address"
        }
      ],
      "name": "ERC721InvalidSender",
      "type": "error"
    },
    {
      "inputs": [
        {
          "internalType": "uint256",
          "name": "tokenId",
          "type": "uint256"
        }
      ],
      "name": "ERC721NonexistentToken",
      "type": "error"
    },
    {
      "anonymous": false,
      "inputs": [
        {
          "indexed": true,
          "internalType": "address",
          "name": "owner",
          "type": "address"
        },
        {
          "indexed": true,
          "internalType": "address",
          "name": "approved",
          "type": "address"
        },
        {
          "indexed": true,
          "internalType": "uint256",
          "name": "tokenId",
          "type": "uint256"
        }
      ],
      "name": "Approval",
      "type": "event"
    },
    {
      "anonymous": false,
      "inputs": [
        {
          "indexed": true,
          "internalType": "address",
          "name": "owner",
          "type": "address"
        },
        {
          "indexed": true,
          "internalType": "address",
          "name": "operator",
          "type": "address"
        },
        {
          "indexed": false,
          "internalType": "bool",
          "name": "approved",
          "type": "bool"
        }
      ],
      "name": "ApprovalForAll",
      "type": "event"
    },
    {
      "anonymous": false,
      "inputs": [
        {
          "indexed": false,
          "internalType": "uint256",
          "name": "_fromTokenId",
          "type": "uint256"
        },
        {
          "indexed": false,
          "internalType": "uint256",
          "name": "_toTokenId",
          "type": "uint256"
        }
      ],
      "name": "BatchMetadataUpdate",
      "type": "event"
    },
    {
      "anonymous": false,
      "inputs": [
        {
          "indexed": false,
          "internalType": "uint256",
          "name": "_tokenId",
          "type": "uint256"
        }
      ],
      "name": "MetadataUpdate",
      "type": "event"
    },
    {
      "anonymous": false,
      "inputs": [
        {
          "indexed": true,
          "internalType": "address",
          "name": "from",
          "type": "address"
        },
        {
          "indexed": true,
          "internalType": "address",
          "name": "to",
          "type": "address"
        },
        {
          "indexed": true,
          "internalType": "uint256",
          "name": "tokenId",
          "type": "uint256"
        }
      ],
      "name": "Transfer",
      "type": "event"
    },
    {
      "inputs": [
        {
          "internalType": "address",
          "name": "to",
          "type": "address"
        },
        {
          "internalType": "uint256",
          "name": "tokenId",
          "type": "uint256"
        }
      ],
      "name": "approve",
      "outputs": [],
      "stateMutability": "nonpayable",
      "type": "function"
    },
    {
      "inputs": [
        {
          "internalType": "address",
          "name": "owner",
          "type": "address"
        }
      ],
      "name": "balanceOf",
      "outputs": [
        {
          "internalType": "uint256",
          "name": "",
          "type": "uint256"
        }
      ],
      "stateMutability": "view",
      "type": "function"
    },
    {
      "inputs": [
        {
          "internalType": "uint256",
          "name": "tokenId",
          "type": "uint256"
        }
      ],
      "name": "getApproved",
      "outputs": [
        {
          "internalType": "address",
          "name": "",
          "type": "address"
        }
      ],
      "stateMutability": "view",
      "type": "function"
    },
    {
      "inputs": [
        {
          "internalType": "address",
          "name": "owner",
          "type": "address"
        },
        {
          "internalType": "address",
          "name": "operator",
          "type": "address"
        }
      ],
      "name": "isApprovedForAll",
      "outputs": [
        {
          "internalType": "bool",
          "name": "",
          "type": "bool"
        }
      ],
      "stateMutability": "view",
      "type": "function"
    },
    {
      "inputs": [
        {
          "internalType": "string",
          "name": "uri",
          "type": "string"
        }
      ],
      "name": "mint",
      "outputs": [
        {
          "internalType": "uint256",
          "name": "",
          "type": "uint256"
        }
      ],
      "stateMutability": "nonpayable",
      "type": "function"
    },
    {
      "inputs": [],
      "name": "name",
      "outputs": [
        {
          "internalType": "string",
          "name": "",
          "type": "string"
        }
      ],
      "stateMutability": "view",
      "type": "function"
    },
    {
      "inputs": [
        {
          "internalType": "uint256",
          "name": "tokenId",
          "type": "uint256"
        }
      ],
      "name": "ownerOf",
      "outputs": [
        {
          "internalType": "address",
          "name": "",
          "type": "address"
        }
      ],
      "stateMutability": "view",
      "type": "function"
    },
    {
      "inputs": [
        {
          "internalType": "address",
          "name": "from",
          "type": "address"
        },
        {
          "internalType": "address",
          "name": "to",
          "type": "address"
        },
        {
          "internalType": "uint256",
          "name": "tokenId",
          "type": "uint256"
        }
      ],
      "name": "safeTransferFrom",
      "outputs": [],
      "stateMutability": "nonpayable",
      "type": "function"
    },
    {
      "inputs": [
        {
          "internalType": "address",
          "name": "from",
          "type": "address"
        },
        {
          "internalType": "address",
          "name": "to",
          "type": "address"
        },
        {
          "internalType": "uint256",
          "name": "tokenId",
          "type": "uint256"
        },
        {
          "internalType": "bytes",
          "name": "data",
          "type": "bytes"
        }
      ],
      "name": "safeTransferFrom",
      "outputs": [],
      "stateMutability": "nonpayable",
      "type": "function"
    },
    {
      "inputs": [
        {
          "internalType": "address",
          "name": "operator",
          "type": "address"
        },
        {
          "internalType": "bool",
          "name": "approved",
          "type": "bool"
        }
      ],
      "name": "setApprovalForAll",
      "outputs": [],
      "stateMutability": "nonpayable",
      "type": "function"
    },
    {
      "inputs": [
        {
          "internalType": "bytes4",
          "name": "interfaceId",
          "type": "bytes4"
        }
      ],
      "name": "supportsInterface",
      "outputs": [
        {
          "internalType": "bool",
          "name": "",
          "type": "bool"
        }
      ],
      "stateMutability": "view",
      "type": "function"
    },
    {
      "inputs": [],
      "name": "symbol",
      "outputs": [
        {
          "internalType": "string",
          "name": "",
          "type": "string"
        }
      ],
      "stateMutability": "view",
      "type": "function"
    },
    {
      "inputs": [
        {
          "internalType": "uint256",
          "name": "tokenId",
          "type": "uint256"
        }
      ],
      "name": "tokenURI",
      "outputs": [
        {
          "internalType": "string",
          "name": "",
          "type": "string"
        }
      ],
      "stateMutability": "view",
      "type": "function"
    },
    {
      "inputs": [
        {
          "internalType": "address",
          "name": "from",
          "type": "address"
        },
        {
          "internalType": "address",
          "name": "to",
          "type": "address"
        },
        {
          "internalType": "uint256",
          "name": "tokenId",
          "type": "uint256"
        }
      ],
      "name": "transferFrom",
      "outputs": [],
      "stateMutability": "nonpayable",
      "type": "function"
    }
  ],
  "bytecode": "0x60806040523480156200001157600080fd5b5060405162002abc38038062002abc8339818101604052810190620000379190620001bc565b6040518060400160405280600581526020017f4f70656e430000000000000000000000000000000000000000000000000000008152506040518060400160405280600381526020017f4f504300000000000000000000000000000000000000000000000000000000008152508160009081620000b4919062000468565b508060019081620000c6919062000468565b50505080600860006101000a81548173ffffffffffffffffffffffffffffffffffffffff021916908373ffffffffffffffffffffffffffffffffffffffff16021790555033600960006101000a81548173ffffffffffffffffffffffffffffffffffffffff021916908373ffffffffffffffffffffffffffffffffffffffff160217905550506200054f565b600080fd5b600073ffffffffffffffffffffffffffffffffffffffff82169050919050565b6000620001848262000157565b9050919050565b620001968162000177565b8114620001a257600080fd5b50565b600081519050620001b6816200018b565b92915050565b600060208284031215620001d557620001d462000152565b5b6000620001e584828501620001a5565b91505092915050565b600081519050919050565b7f4e487b7100000000000000000000000000000000000000000000000000000000600052604160045260246000fd5b7f4e487b7100000000000000000000000000000000000000000000000000000000600052602260045260246000fd5b600060028204905060018216806200027057607f821691505b60208210810362000286576200028562000228565b5b50919050565b60008190508160005260206000209050919050565b60006020601f8301049050919050565b600082821b905092915050565b600060088302620002f07fffffffffffffffffffffffffffffffffffffffffffffffffffffffffffffffff82620002b1565b620002fc8683620002b1565b95508019841693508086168417925050509392505050565b6000819050919050565b6000819050919050565b600062000349620003436200033d8462000314565b6200031e565b62000314565b9050919050565b6000819050919050565b620003658362000328565b6200037d620003748262000350565b848454620002be565b825550505050565b600090565b6200039462000385565b620003a18184846200035a565b505050565b5b81811015620003c957620003bd6000826200038a565b600181019050620003a7565b5050565b601f8211156200041857620003e2816200028c565b620003ed84620002a1565b81016020851015620003fd578190505b620004156200040c85620002a1565b830182620003a6565b50505b505050565b600082821c905092915050565b60006200043d600019846008026200041d565b1980831691505092915050565b60006200045883836200042a565b9150826002028217905092915050565b6200047382620001ee565b67ffffffffffffffff8111156200048f576200048e620001f9565b5b6200049b825462000257565b620004a8828285620003cd565b600060209050601f831160018114620004e05760008415620004cb578287015190505b620004d785826200044a565b86555062000547565b601f198416620004f0866200028c565b60005b828110156200051a57848901518255600182019150602085019450602081019050620004f3565b868310156200053a578489015162000536601f8916826200042a565b8355505b6001600288020188555050505b505050505050565b61255d806200055f6000396000f3fe608060405234801561001057600080fd5b50600436106100ea5760003560e01c806370a082311161008c578063b88d4fde11610066578063b88d4fde1461025b578063c87b56dd14610277578063d85d3d27146102a7578063e985e9c5146102d7576100ea565b806370a08231146101f157806395d89b4114610221578063a22cb4651461023f576100ea565b8063095ea7b3116100c8578063095ea7b31461016d57806323b872dd1461018957806342842e0e146101a55780636352211e146101c1576100ea565b806301ffc9a7146100ef57806306fdde031461011f578063081812fc1461013d575b600080fd5b61010960048036038101906101049190611936565b610307565b604051610116919061197e565b60405180910390f35b610127610368565b6040516101349190611a29565b60405180910390f35b61015760048036038101906101529190611a81565b6103fa565b6040516101649190611aef565b60405180910390f35b61018760048036038101906101829190611b36565b610416565b005b6101a3600480360381019061019e9190611b76565b61042c565b005b6101bf60048036038101906101ba9190611b76565b61052e565b005b6101db60048036038101906101d69190611a81565b61054e565b6040516101e89190611aef565b60405180910390f35b61020b60048036038101906102069190611bc9565b610560565b6040516102189190611c05565b60405180910390f35b61022961061a565b6040516102369190611a29565b60405180910390f35b61025960048036038101906102549190611c4c565b6106ac565b005b61027560048036038101906102709190611dc1565b6107ba565b005b610291600480360381019061028c9190611a81565b6107d7565b60405161029e9190611a29565b60405180910390f35b6102c160048036038101906102bc9190611ee5565b6108ea565b6040516102ce9190611c05565b60405180910390f35b6102f160048036038101906102ec9190611f2e565b61094e565b6040516102fe919061197e565b60405180910390f35b6000634906490660e01b7bffffffffffffffffffffffffffffffffffffffffffffffffffffffff1916827bffffffffffffffffffffffffffffffffffffffffffffffffffffffff191614806103615750610360826109e2565b5b9050919050565b60606000805461037790611f9d565b80601f01602080910402602001604051908101604052809291908181526020018280546103a390611f9d565b80156103f05780601f106103c5576101008083540402835291602001916103f0565b820191906000526020600020905b8154815290600101906020018083116103d357829003601f168201915b5050505050905090565b600061040582610ac4565b5061040f82610b4c565b9050919050565b6104288282610423610b89565b610b91565b5050565b600073ffffffffffffffffffffffffffffffffffffffff168273ffffffffffffffffffffffffffffffffffffffff160361049e5760006040517f64a0ae920000000000000000000000000000000000000000000000000000000081526004016104959190611aef565b60405180910390fd5b60006104b283836104ad610b89565b610ba3565b90508373ffffffffffffffffffffffffffffffffffffffff168173ffffffffffffffffffffffffffffffffffffffff1614610528578382826040517f64283d7b00000000000000000000000000000000000000000000000000000000815260040161051f93929190611fce565b60405180910390fd5b50505050565b610549838383604051806020016040528060008152506107ba565b505050565b600061055982610ac4565b9050919050565b60008073ffffffffffffffffffffffffffffffffffffffff168273ffffffffffffffffffffffffffffffffffffffff16036105d35760006040517f89c62b640000000000000000000000000000000000000000000000000000000081526004016105ca9190611aef565b60405180910390fd5b600360008373ffffffffffffffffffffffffffffffffffffffff1673ffffffffffffffffffffffffffffffffffffffff168152602001908152602001600020549050919050565b60606001805461062990611f9d565b80601f016020809104026020016040519081016040528092919081815260200182805461065590611f9d565b80156106a25780601f10610677576101008083540402835291602001916106a2565b820191906000526020600020905b81548152906001019060200180831161068557829003601f168201915b5050505050905090565b600960009054906101000a900473ffffffffffffffffffffffffffffffffffffffff1673ffffffffffffffffffffffffffffffffffffffff166106ed610b89565b73ffffffffffffffffffffffffffffffffffffffff16148061075d5750600860009054906101000a900473ffffffffffffffffffffffffffffffffffffffff1673ffffffffffffffffffffffffffffffffffffffff168273ffffffffffffffffffffffffffffffffffffffff1614155b806107655750805b6107a4576040517f08c379a000000000000000000000000000000000000000000000000000000000815260040161079b90612077565b60405180910390fd5b6107b66107af610b89565b8383610dbd565b5050565b6107c584848461042c565b6107d184848484610f2c565b50505050565b60606107e282610ac4565b50600060066000848152602001908152602001600020805461080390611f9d565b80601f016020809104026020016040519081016040528092919081815260200182805461082f90611f9d565b801561087c5780601f106108515761010080835404028352916020019161087c565b820191906000526020600020905b81548152906001019060200180831161085f57829003601f168201915b50505050509050600061088d6110e3565b905060008151036108a25781925050506108e5565b6000825111156108d75780826040516020016108bf9291906120d3565b604051602081830303815290604052925050506108e5565b6108e0846110fa565b925050505b919050565b6000806007600081546108fc90612126565b919050819055905061090e3382611163565b610918818461125c565b610945600860009054906101000a900473ffffffffffffffffffffffffffffffffffffffff1660016106ac565b80915050919050565b6000600560008473ffffffffffffffffffffffffffffffffffffffff1673ffffffffffffffffffffffffffffffffffffffff16815260200190815260200160002060008373ffffffffffffffffffffffffffffffffffffffff1673ffffffffffffffffffffffffffffffffffffffff16815260200190815260200160002060009054906101000a900460ff16905092915050565b60007f80ac58cd000000000000000000000000000000000000000000000000000000007bffffffffffffffffffffffffffffffffffffffffffffffffffffffff1916827bffffffffffffffffffffffffffffffffffffffffffffffffffffffff19161480610aad57507f5b5e139f000000000000000000000000000000000000000000000000000000007bffffffffffffffffffffffffffffffffffffffffffffffffffffffff1916827bffffffffffffffffffffffffffffffffffffffffffffffffffffffff1916145b80610abd5750610abc826112b8565b5b9050919050565b600080610ad083611322565b9050600073ffffffffffffffffffffffffffffffffffffffff168173ffffffffffffffffffffffffffffffffffffffff1603610b4357826040517f7e273289000000000000000000000000000000000000000000000000000000008152600401610b3a9190611c05565b60405180910390fd5b80915050919050565b60006004600083815260200190815260200160002060009054906101000a900473ffffffffffffffffffffffffffffffffffffffff169050919050565b600033905090565b610b9e838383600161135f565b505050565b600080610baf84611322565b9050600073ffffffffffffffffffffffffffffffffffffffff168373ffffffffffffffffffffffffffffffffffffffff1614610bf157610bf0818486611524565b5b600073ffffffffffffffffffffffffffffffffffffffff168173ffffffffffffffffffffffffffffffffffffffff1614610c8257610c3360008560008061135f565b6001600360008373ffffffffffffffffffffffffffffffffffffffff1673ffffffffffffffffffffffffffffffffffffffff168152602001908152602001600020600082825403925050819055505b600073ffffffffffffffffffffffffffffffffffffffff168573ffffffffffffffffffffffffffffffffffffffff1614610d05576001600360008773ffffffffffffffffffffffffffffffffffffffff1673ffffffffffffffffffffffffffffffffffffffff168152602001908152602001600020600082825401925050819055505b846002600086815260200190815260200160002060006101000a81548173ffffffffffffffffffffffffffffffffffffffff021916908373ffffffffffffffffffffffffffffffffffffffff160217905550838573ffffffffffffffffffffffffffffffffffffffff168273ffffffffffffffffffffffffffffffffffffffff167fddf252ad1be2c89b69c2b068fc378daa952ba7f163c4a11628f55a4df523b3ef60405160405180910390a4809150509392505050565b600073ffffffffffffffffffffffffffffffffffffffff168273ffffffffffffffffffffffffffffffffffffffff1603610e2e57816040517f5b08ba18000000000000000000000000000000000000000000000000000000008152600401610e259190611aef565b60405180910390fd5b80600560008573ffffffffffffffffffffffffffffffffffffffff1673ffffffffffffffffffffffffffffffffffffffff16815260200190815260200160002060008473ffffffffffffffffffffffffffffffffffffffff1673ffffffffffffffffffffffffffffffffffffffff16815260200190815260200160002060006101000a81548160ff0219169083151502179055508173ffffffffffffffffffffffffffffffffffffffff168373ffffffffffffffffffffffffffffffffffffffff167f17307eab39ab6107e8899845ad3d59bd9653f200f220920489ca2b5937696c3183604051610f1f919061197e565b60405180910390a3505050565b60008373ffffffffffffffffffffffffffffffffffffffff163b11156110dd578273ffffffffffffffffffffffffffffffffffffffff1663150b7a02610f70610b89565b8685856040518563ffffffff1660e01b8152600401610f9294939291906121c3565b6020604051808303816000875af1925050508015610fce57506040513d601f19601f82011682018060405250810190610fcb9190612224565b60015b611052573d8060008114610ffe576040519150601f19603f3d011682016040523d82523d6000602084013e611003565b606091505b50600081510361104a57836040517f64a0ae920000000000000000000000000000000000000000000000000000000081526004016110419190611aef565b60405180910390fd5b805181602001fd5b63150b7a0260e01b7bffffffffffffffffffffffffffffffffffffffffffffffffffffffff1916817bffffffffffffffffffffffffffffffffffffffffffffffffffffffff1916146110db57836040517f64a0ae920000000000000000000000000000000000000000000000000000000081526004016110d29190611aef565b60405180910390fd5b505b50505050565b606060405180602001604052806000815250905090565b606061110582610ac4565b5060006111106110e3565b90506000815111611130576040518060200160405280600081525061115b565b8061113a846115e8565b60405160200161114b9291906120d3565b6040516020818303038152906040525b915050919050565b600073ffffffffffffffffffffffffffffffffffffffff168273ffffffffffffffffffffffffffffffffffffffff16036111d55760006040517f64a0ae920000000000000000000000000000000000000000000000000000000081526004016111cc9190611aef565b60405180910390fd5b60006111e383836000610ba3565b9050600073ffffffffffffffffffffffffffffffffffffffff168173ffffffffffffffffffffffffffffffffffffffff16146112575760006040517f73c6ac6e00000000000000000000000000000000000000000000000000000000815260040161124e9190611aef565b60405180910390fd5b505050565b8060066000848152602001908152602001600020908161127c91906123fd565b507ff8e1a15aba9398e019f0b49df1a4fde98ee17ae345cb5f6b5e2c27f5033e8ce7826040516112ac9190611c05565b60405180910390a15050565b60007f01ffc9a7000000000000000000000000000000000000000000000000000000007bffffffffffffffffffffffffffffffffffffffffffffffffffffffff1916827bffffffffffffffffffffffffffffffffffffffffffffffffffffffff1916149050919050565b60006002600083815260200190815260200160002060009054906101000a900473ffffffffffffffffffffffffffffffffffffffff169050919050565b80806113985750600073ffffffffffffffffffffffffffffffffffffffff168273ffffffffffffffffffffffffffffffffffffffff1614155b156114cc5760006113a884610ac4565b9050600073ffffffffffffffffffffffffffffffffffffffff168373ffffffffffffffffffffffffffffffffffffffff161415801561141357508273ffffffffffffffffffffffffffffffffffffffff168173ffffffffffffffffffffffffffffffffffffffff1614155b80156114265750611424818461094e565b155b1561146857826040517fa9fbf51f00000000000000000000000000000000000000000000000000000000815260040161145f9190611aef565b60405180910390fd5b81156114ca57838573ffffffffffffffffffffffffffffffffffffffff168273ffffffffffffffffffffffffffffffffffffffff167f8c5be1e5ebec7d5bd14f71427d1e84f3dd0314c0f7b2291e5b200ac8c7c3b92560405160405180910390a45b505b836004600085815260200190815260200160002060006101000a81548173ffffffffffffffffffffffffffffffffffffffff021916908373ffffffffffffffffffffffffffffffffffffffff16021790555050505050565b61152f8383836116b6565b6115e357600073ffffffffffffffffffffffffffffffffffffffff168373ffffffffffffffffffffffffffffffffffffffff16036115a457806040517f7e27328900000000000000000000000000000000000000000000000000000000815260040161159b9190611c05565b60405180910390fd5b81816040517f177e802f0000000000000000000000000000000000000000000000000000000081526004016115da9291906124cf565b60405180910390fd5b505050565b6060600060016115f784611777565b01905060008167ffffffffffffffff81111561161657611615611c96565b5b6040519080825280601f01601f1916602001820160405280156116485781602001600182028036833780820191505090505b509050600082602001820190505b6001156116ab578080600190039150507f3031323334353637383961626364656600000000000000000000000000000000600a86061a8153600a858161169f5761169e6124f8565b5b04945060008503611656575b819350505050919050565b60008073ffffffffffffffffffffffffffffffffffffffff168373ffffffffffffffffffffffffffffffffffffffff161415801561176e57508273ffffffffffffffffffffffffffffffffffffffff168473ffffffffffffffffffffffffffffffffffffffff16148061172f575061172e848461094e565b5b8061176d57508273ffffffffffffffffffffffffffffffffffffffff1661175583610b4c565b73ffffffffffffffffffffffffffffffffffffffff16145b5b90509392505050565b600080600090507a184f03e93ff9f4daa797ed6e38ed64bf6a1f01000000000000000083106117d5577a184f03e93ff9f4daa797ed6e38ed64bf6a1f01000000000000000083816117cb576117ca6124f8565b5b0492506040810190505b6d04ee2d6d415b85acef81000000008310611812576d04ee2d6d415b85acef81000000008381611808576118076124f8565b5b0492506020810190505b662386f26fc10000831061184157662386f26fc100008381611837576118366124f8565b5b0492506010810190505b6305f5e100831061186a576305f5e10083816118605761185f6124f8565b5b0492506008810190505b612710831061188f576127108381611885576118846124f8565b5b0492506004810190505b606483106118b257606483816118a8576118a76124f8565b5b0492506002810190505b600a83106118c1576001810190505b80915050919050565b6000604051905090565b600080fd5b600080fd5b60007fffffffff0000000000000000000000000000000000000000000000000000000082169050919050565b611913816118de565b811461191e57600080fd5b50565b6000813590506119308161190a565b92915050565b60006020828403121561194c5761194b6118d4565b5b600061195a84828501611921565b91505092915050565b60008115159050919050565b61197881611963565b82525050565b6000602082019050611993600083018461196f565b92915050565b600081519050919050565b600082825260208201905092915050565b60005b838110156119d35780820151818401526020810190506119b8565b60008484015250505050565b6000601f19601f8301169050919050565b60006119fb82611999565b611a0581856119a4565b9350611a158185602086016119b5565b611a1e816119df565b840191505092915050565b60006020820190508181036000830152611a4381846119f0565b905092915050565b6000819050919050565b611a5e81611a4b565b8114611a6957600080fd5b50565b600081359050611a7b81611a55565b92915050565b600060208284031215611a9757611a966118d4565b5b6000611aa584828501611a6c565b91505092915050565b600073ffffffffffffffffffffffffffffffffffffffff82169050919050565b6000611ad982611aae565b9050919050565b611ae981611ace565b82525050565b6000602082019050611b046000830184611ae0565b92915050565b611b1381611ace565b8114611b1e57600080fd5b50565b600081359050611b3081611b0a565b92915050565b60008060408385031215611b4d57611b4c6118d4565b5b6000611b5b85828601611b21565b9250506020611b6c85828601611a6c565b9150509250929050565b600080600060608486031215611b8f57611b8e6118d4565b5b6000611b9d86828701611b21565b9350506020611bae86828701611b21565b9250506040611bbf86828701611a6c565b9150509250925092565b600060208284031215611bdf57611bde6118d4565b5b6000611bed84828501611b21565b91505092915050565b611bff81611a4b565b82525050565b6000602082019050611c1a6000830184611bf6565b92915050565b611c2981611963565b8114611c3457600080fd5b50565b600081359050611c4681611c20565b92915050565b60008060408385031215611c6357611c626118d4565b5b6000611c7185828601611b21565b9250506020611c8285828601611c37565b9150509250929050565b600080fd5b600080fd5b7f4e487b7100000000000000000000000000000000000000000000000000000000600052604160045260246000fd5b611cce826119df565b810181811067ffffffffffffffff82111715611ced57611cec611c96565b5b80604052505050565b6000611d006118ca565b9050611d0c8282611cc5565b919050565b600067ffffffffffffffff821115611d2c57611d2b611c96565b5b611d35826119df565b9050602081019050919050565b82818337600083830152505050565b6000611d64611d5f84611d11565b611cf6565b905082815260208101848484011115611d8057611d7f611c91565b5b611d8b848285611d42565b509392505050565b600082601f830112611da857611da7611c8c565b5b8135611db8848260208601611d51565b91505092915050565b60008060008060808587031215611ddb57611dda6118d4565b5b6000611de987828801611b21565b9450506020611dfa87828801611b21565b9350506040611e0b87828801611a6c565b925050606085013567ffffffffffffffff811115611e2c57611e2b6118d9565b5b611e3887828801611d93565b91505092959194509250565b600067ffffffffffffffff821115611e5f57611e5e611c96565b5b611e68826119df565b9050602081019050919050565b6000611e88611e8384611e44565b611cf6565b905082815260208101848484011115611ea457611ea3611c91565b5b611eaf848285611d42565b509392505050565b600082601f830112611ecc57611ecb611c8c565b5b8135611edc848260208601611e75565b91505092915050565b600060208284031215611efb57611efa6118d4565b5b600082013567ffffffffffffffff811115611f1957611f186118d9565b5b611f2584828501611eb7565b91505092915050565b60008060408385031215611f4557611f446118d4565b5b6000611f5385828601611b21565b9250506020611f6485828601611b21565b9150509250929050565b7f4e487b7100000000000000000000000000000000000000000000000000000000600052602260045260246000fd5b60006002820490506001821680611fb557607f821691505b602082108103611fc857611fc7611f6e565b5b50919050565b6000606082019050611fe36000830186611ae0565b611ff06020830185611bf6565b611ffd6040830184611ae0565b949350505050565b7f43616e6e6f742072656d6f7665206d61726b6574706c61636520617070726f7660008201527f616c000000000000000000000000000000000000000000000000000000000000602082015250565b60006120616022836119a4565b915061206c82612005565b604082019050919050565b6000602082019050818103600083015261209081612054565b9050919050565b600081905092915050565b60006120ad82611999565b6120b78185612097565b93506120c78185602086016119b5565b80840191505092915050565b60006120df82856120a2565b91506120eb82846120a2565b91508190509392505050565b7f4e487b7100000000000000000000000000000000000000000000000000000000600052601160045260246000fd5b600061213182611a4b565b91507fffffffffffffffffffffffffffffffffffffffffffffffffffffffffffffffff8203612163576121626120f7565b5b600182019050919050565b600081519050919050565b600082825260208201905092915050565b60006121958261216e565b61219f8185612179565b93506121af8185602086016119b5565b6121b8816119df565b840191505092915050565b60006080820190506121d86000830187611ae0565b6121e56020830186611ae0565b6121f26040830185611bf6565b8181036060830152612204818461218a565b905095945050505050565b60008151905061221e8161190a565b92915050565b60006020828403121561223a576122396118d4565b5b60006122488482850161220f565b91505092915050565b60008190508160005260206000209050919050565b60006020601f8301049050919050565b600082821b905092915050565b6000600883026122b37fffffffffffffffffffffffffffffffffffffffffffffffffffffffffffffffff82612276565b6122bd8683612276565b95508019841693508086168417925050509392505050565b6000819050919050565b60006122fa6122f56122f084611a4b565b6122d5565b611a4b565b9050919050565b6000819050919050565b612314836122df565b61232861232082612301565b848454612283565b825550505050565b600090565b61233d612330565b61234881848461230b565b505050565b5b8181101561236c57612361600082612335565b60018101905061234e565b5050565b601f8211156123b15761238281612251565b61238b84612266565b8101602085101561239a578190505b6123ae6123a685612266565b83018261234d565b50505b505050565b600082821c905092915050565b60006123d4600019846008026123b6565b1980831691505092915050565b60006123ed83836123c3565b9150826002028217905092915050565b61240682611999565b67ffffffffffffffff81111561241f5761241e611c96565b5b6124298254611f9d565b612434828285612370565b600060209050601f8311600181146124675760008415612455578287015190505b61245f85826123e1565b8655506124c7565b601f19841661247586612251565b60005b8281101561249d57848901518255600182019150602085019450602081019050612478565b868310156124ba57848901516124b6601f8916826123c3565b8355505b6001600288020188555050505b505050505050565b60006040820190506124e46000830185611ae0565b6124f16020830184611bf6565b9392505050565b7f4e487b7100000000000000000000000000000000000000000000000000000000600052601260045260246000fdfea2646970667358221220510e02df25b427029ddea7ec5c4064f17fcf13374738be433e0a27d789331d7564736f6c63430008180033",
  "linkReferences": {},
  "deployedLinkReferences": {}
}