{
  "_format": "hh-sol-artifact-1",
  "contractName": "NFTMarket",
  "sourceName": "contracts/NFTMarket.sol",
  "abi": [
    {
      "inputs": [],
      "stateMutability": "nonpayable",
      "type": "constructor"
    },
    {
      "inputs": [],
      "name": "ReentrancyGuardReentrantCall",
      "type": "error"
    },
    {
      "anonymous": false,
      "inputs": [
        {
          "indexed": true,
          "internalType": "uint256",
          "name": "itemId",
          "type": "uint256"
        },
        {
          "indexed": true,
          "internalType": "address",
          "name": "nftContract",
          "type": "address"
        },
        {
          "indexed": true,
          "internalType": "uint256",
          "name": "tokenId",
          "type": "uint256"
        },
        {
          "indexed": false,
          "internalType": "address",
          "name": "seller",
          "type": "address"
        },
        {
          "indexed": false,
          "internalType": "uint256",
          "name": "price",
          "type": "uint256"
        }
      ],
      "name": "MarketItemCreated",
      "type": "event"
    },
    {
      "inputs": [
        {
          "internalType": "uint256",
          "name": "",
          "type": "uint256"
        }
      ],
      "name": "MarketItems",
      "outputs": [
        {
          "internalType": "uint256",
          "name": "itemId",
          "type": "uint256"
        },
        {
          "internalType": "address",
          "name": "nftContract",
          "type": "address"
        },
        {
          "internalType": "uint256",
          "name": "tokenId",
          "type": "uint256"
        },
        {
          "internalType": "address payable",
          "name": "seller",
          "type": "address"
        },
        {
          "internalType": "address payable",
          "name": "owner",
          "type": "address"
        },
        {
          "internalType": "uint256",
          "name": "price",
          "type": "uint256"
        },
        {
          "internalType": "bool",
          "name": "sold",
          "type": "bool"
        }
      ],
      "stateMutability": "view",
      "type": "function"
    },
    {
      "inputs": [
        {
          "internalType": "address",
          "name": "nftContract",
          "type": "address"
        },
        {
          "internalType": "uint256",
          "name": "tokenId",
          "type": "uint256"
        },
        {
          "internalType": "uint256",
          "name": "price",
          "type": "uint256"
        }
      ],
      "name": "createMarketItem",
      "outputs": [],
      "stateMutability": "payable",
      "type": "function"
    },
    {
      "inputs": [
        {
          "internalType": "address",
          "name": "nftContract",
          "type": "address"
        },
        {
          "internalType": "uint256",
          "name": "itemId",
          "type": "uint256"
        }
      ],
      "name": "createMarketSale",
      "outputs": [],
      "stateMutability": "payable",
      "type": "function"
    },
    {
      "inputs": [],
      "name": "fetchItemsCreated",
      "outputs": [
        {
          "components": [
            {
              "internalType": "uint256",
              "name": "itemId",
              "type": "uint256"
            },
            {
              "internalType": "address",
              "name": "nftContract",
              "type": "address"
            },
            {
              "internalType": "uint256",
              "name": "tokenId",
              "type": "uint256"
            },
            {
              "internalType": "address payable",
              "name": "seller",
              "type": "address"
            },
            {
              "internalType": "address payable",
              "name": "owner",
              "type": "address"
            },
            {
              "internalType": "uint256",
              "name": "price",
              "type": "uint256"
            },
            {
              "internalType": "bool",
              "name": "sold",
              "type": "bool"
            }
          ],
          "internalType": "struct NFTMarket.MarketItem[]",
          "name": "",
          "type": "tuple[]"
        }
      ],
      "stateMutability": "view",
      "type": "function"
    },
    {
      "inputs": [],
      "name": "fetchMarketItems",
      "outputs": [
        {
          "components": [
            {
              "internalType": "uint256",
              "name": "itemId",
              "type": "uint256"
            },
            {
              "internalType": "address",
              "name": "nftContract",
              "type": "address"
            },
            {
              "internalType": "uint256",
              "name": "tokenId",
              "type": "uint256"
            },
            {
              "internalType": "address payable",
              "name": "seller",
              "type": "address"
            },
            {
              "internalType": "address payable",
              "name": "owner",
              "type": "address"
            },
            {
              "internalType": "uint256",
              "name": "price",
              "type": "uint256"
            },
            {
              "internalType": "bool",
              "name": "sold",
              "type": "bool"
            }
          ],
          "internalType": "struct NFTMarket.MarketItem[]",
          "name": "",
          "type": "tuple[]"
        }
      ],
      "stateMutability": "view",
      "type": "function"
    },
    {
      "inputs": [],
      "name": "fetchMyNFTs",
      "outputs": [
        {
          "components": [
            {
              "internalType": "uint256",
              "name": "itemId",
              "type": "uint256"
            },
            {
              "internalType": "address",
              "name": "nftContract",
              "type": "address"
            },
            {
              "internalType": "uint256",
              "name": "tokenId",
              "type": "uint256"
            },
            {
              "internalType": "address payable",
              "name": "seller",
              "type": "address"
            },
            {
              "internalType": "address payable",
              "name": "owner",
              "type": "address"
            },
            {
              "internalType": "uint256",
              "name": "price",
              "type": "uint256"
            },
            {
              "internalType": "bool",
              "name": "sold",
              "type": "bool"
            }
          ],
          "internalType": "struct NFTMarket.MarketItem[]",
          "name": "",
          "type": "tuple[]"
        }
      ],
      "stateMutability": "view",
      "type": "function"
    },
    {
      "inputs": [],
      "name": "listingPrice",
      "outputs": [
        {
          "internalType": "uint256",
          "name": "",
          "type": "uint256"
        }
      ],
      "stateMutability": "view",
      "type": "function"
    }
  ],
  "bytecode": "0x60806040526608e1bc9bf0400060045534801561001b57600080fd5b50600160008190555033600160006101000a81548173ffffffffffffffffffffffffffffffffffffffff021916908373ffffffffffffffffffffffffffffffffffffffff160217905550611856806100746000396000f3fe6080604052600436106100705760003560e01c806358eb2df51161004e57806358eb2df51461010e578063c23b139e1461012a578063c78f19f914610146578063f064c32e1461017157610070565b80630f08efe014610075578063202e3740146100a0578063577256a4146100cb575b600080fd5b34801561008157600080fd5b5061008a61019c565b60405161009791906112eb565b60405180910390f35b3480156100ac57600080fd5b506100b56103e2565b6040516100c291906112eb565b60405180910390f35b3480156100d757600080fd5b506100f260048036038101906100ed919061133e565b6106ee565b60405161010597969594939291906113a7565b60405180910390f35b61012860048036038101906101239190611442565b61079d565b005b610144600480360381019061013f9190611495565b610ab6565b005b34801561015257600080fd5b5061015b610d35565b60405161016891906114d5565b60405180910390f35b34801561017d57600080fd5b50610186610d3b565b60405161019391906112eb565b60405180910390f35b606060006003546002546101b0919061151f565b905060008167ffffffffffffffff8111156101ce576101cd611553565b5b60405190808252806020026020018201604052801561020757816020015b6101f4611097565b8152602001906001900390816101ec5790505b509050600080600190505b60025481116103d8576005600082815260200190815260200160002060060160009054906101000a900460ff166103c757600560008281526020019081526020016000206040518060e0016040529081600082015481526020016001820160009054906101000a900473ffffffffffffffffffffffffffffffffffffffff1673ffffffffffffffffffffffffffffffffffffffff1673ffffffffffffffffffffffffffffffffffffffff168152602001600282015481526020016003820160009054906101000a900473ffffffffffffffffffffffffffffffffffffffff1673ffffffffffffffffffffffffffffffffffffffff1673ffffffffffffffffffffffffffffffffffffffff1681526020016004820160009054906101000a900473ffffffffffffffffffffffffffffffffffffffff1673ffffffffffffffffffffffffffffffffffffffff1673ffffffffffffffffffffffffffffffffffffffff168152602001600582015481526020016006820160009054906101000a900460ff1615151515815250508383815181106103af576103ae611582565b5b6020026020010181905250816103c4906115b1565b91505b806103d1906115b1565b9050610212565b5081935050505090565b6060600080600190505b600254811161047c573373ffffffffffffffffffffffffffffffffffffffff166005600083815260200190815260200160002060040160009054906101000a900473ffffffffffffffffffffffffffffffffffffffff1673ffffffffffffffffffffffffffffffffffffffff160361046b5781610468906115b1565b91505b80610475906115b1565b90506103ec565b5060008167ffffffffffffffff81111561049957610498611553565b5b6040519080825280602002602001820160405280156104d257816020015b6104bf611097565b8152602001906001900390816104b75790505b509050600080600190505b60025481116106e4573373ffffffffffffffffffffffffffffffffffffffff166005600083815260200190815260200160002060040160009054906101000a900473ffffffffffffffffffffffffffffffffffffffff1673ffffffffffffffffffffffffffffffffffffffff16036106d357600560008281526020019081526020016000206040518060e0016040529081600082015481526020016001820160009054906101000a900473ffffffffffffffffffffffffffffffffffffffff1673ffffffffffffffffffffffffffffffffffffffff1673ffffffffffffffffffffffffffffffffffffffff168152602001600282015481526020016003820160009054906101000a900473ffffffffffffffffffffffffffffffffffffffff1673ffffffffffffffffffffffffffffffffffffffff1673ffffffffffffffffffffffffffffffffffffffff1681526020016004820160009054906101000a900473ffffffffffffffffffffffffffffffffffffffff1673ffffffffffffffffffffffffffffffffffffffff1673ffffffffffffffffffffffffffffffffffffffff168152602001600582015481526020016006820160009054906101000a900460ff1615151515815250508383815181106106bb576106ba611582565b5b6020026020010181905250816106d0906115b1565b91505b806106dd906115b1565b90506104dd565b5081935050505090565b60056020528060005260406000206000915090508060000154908060010160009054906101000a900473ffffffffffffffffffffffffffffffffffffffff16908060020154908060030160009054906101000a900473ffffffffffffffffffffffffffffffffffffffff16908060040160009054906101000a900473ffffffffffffffffffffffffffffffffffffffff16908060050154908060060160009054906101000a900460ff16905087565b6107a5611047565b600081116107e8576040517f08c379a00000000000000000000000000000000000000000000000000000000081526004016107df90611656565b60405180910390fd5b600454341461082c576040517f08c379a0000000000000000000000000000000000000000000000000000000008152600401610823906116e8565b60405180910390fd5b600060026000815461083d906115b1565b91905081905590506040518060e001604052808281526020018573ffffffffffffffffffffffffffffffffffffffff1681526020018481526020013373ffffffffffffffffffffffffffffffffffffffff168152602001600073ffffffffffffffffffffffffffffffffffffffff16815260200183815260200160001515815250600560008381526020019081526020016000206000820151816000015560208201518160010160006101000a81548173ffffffffffffffffffffffffffffffffffffffff021916908373ffffffffffffffffffffffffffffffffffffffff1602179055506040820151816002015560608201518160030160006101000a81548173ffffffffffffffffffffffffffffffffffffffff021916908373ffffffffffffffffffffffffffffffffffffffff16021790555060808201518160040160006101000a81548173ffffffffffffffffffffffffffffffffffffffff021916908373ffffffffffffffffffffffffffffffffffffffff16021790555060a0820151816005015560c08201518160060160006101000a81548160ff0219169083151502179055509050508373ffffffffffffffffffffffffffffffffffffffff166323b872dd3330866040518463ffffffff1660e01b8152600401610a2493929190611708565b600060405180830381600087803b158015610a3e57600080fd5b505af1158015610a52573d6000803e3d6000fd5b50505050828473ffffffffffffffffffffffffffffffffffffffff16827f6c768f237d15b0eedb46b2f49918dc5109839c2d232c382d377c40fabeeec92d3386604051610aa092919061173f565b60405180910390a450610ab161108d565b505050565b610abe611047565b600060056000838152602001908152602001600020600501549050600060056000848152602001908152602001600020600201549050813414610b36576040517f08c379a0000000000000000000000000000000000000000000000000000000008152600401610b2d90611800565b60405180910390fd5b6005600084815260200190815260200160002060030160009054906101000a900473ffffffffffffffffffffffffffffffffffffffff1673ffffffffffffffffffffffffffffffffffffffff166108fc349081150290604051600060405180830381858888f19350505050158015610bb2573d6000803e3d6000fd5b508373ffffffffffffffffffffffffffffffffffffffff166323b872dd3033846040518463ffffffff1660e01b8152600401610bf093929190611708565b600060405180830381600087803b158015610c0a57600080fd5b505af1158015610c1e573d6000803e3d6000fd5b50505050336005600085815260200190815260200160002060040160006101000a81548173ffffffffffffffffffffffffffffffffffffffff021916908373ffffffffffffffffffffffffffffffffffffffff16021790555060016005600085815260200190815260200160002060060160006101000a81548160ff021916908315150217905550600360008154610cb5906115b1565b91905081905550600160009054906101000a900473ffffffffffffffffffffffffffffffffffffffff1673ffffffffffffffffffffffffffffffffffffffff166108fc6004549081150290604051600060405180830381858888f19350505050158015610d26573d6000803e3d6000fd5b505050610d3161108d565b5050565b60045481565b6060600080600190505b6002548111610dd5573373ffffffffffffffffffffffffffffffffffffffff166005600083815260200190815260200160002060030160009054906101000a900473ffffffffffffffffffffffffffffffffffffffff1673ffffffffffffffffffffffffffffffffffffffff1603610dc45781610dc1906115b1565b91505b80610dce906115b1565b9050610d45565b5060008167ffffffffffffffff811115610df257610df1611553565b5b604051908082528060200260200182016040528015610e2b57816020015b610e18611097565b815260200190600190039081610e105790505b509050600080600190505b600254811161103d573373ffffffffffffffffffffffffffffffffffffffff166005600083815260200190815260200160002060030160009054906101000a900473ffffffffffffffffffffffffffffffffffffffff1673ffffffffffffffffffffffffffffffffffffffff160361102c57600560008281526020019081526020016000206040518060e0016040529081600082015481526020016001820160009054906101000a900473ffffffffffffffffffffffffffffffffffffffff1673ffffffffffffffffffffffffffffffffffffffff1673ffffffffffffffffffffffffffffffffffffffff168152602001600282015481526020016003820160009054906101000a900473ffffffffffffffffffffffffffffffffffffffff1673ffffffffffffffffffffffffffffffffffffffff1673ffffffffffffffffffffffffffffffffffffffff1681526020016004820160009054906101000a900473ffffffffffffffffffffffffffffffffffffffff1673ffffffffffffffffffffffffffffffffffffffff1673ffffffffffffffffffffffffffffffffffffffff168152602001600582015481526020016006820160009054906101000a900460ff16151515158152505083838151811061101457611013611582565b5b602002602001018190525081611029906115b1565b91505b80611036906115b1565b9050610e36565b5081935050505090565b600260005403611083576040517f3ee5aeb500000000000000000000000000000000000000000000000000000000815260040160405180910390fd5b6002600081905550565b6001600081905550565b6040518060e0016040528060008152602001600073ffffffffffffffffffffffffffffffffffffffff16815260200160008152602001600073ffffffffffffffffffffffffffffffffffffffff168152602001600073ffffffffffffffffffffffffffffffffffffffff168152602001600081526020016000151581525090565b600081519050919050565b600082825260208201905092915050565b6000819050602082019050919050565b6000819050919050565b61115781611144565b82525050565b600073ffffffffffffffffffffffffffffffffffffffff82169050919050565b60006111888261115d565b9050919050565b6111988161117d565b82525050565b60006111a98261115d565b9050919050565b6111b98161119e565b82525050565b60008115159050919050565b6111d4816111bf565b82525050565b60e0820160008201516111f0600085018261114e565b506020820151611203602085018261118f565b506040820151611216604085018261114e565b50606082015161122960608501826111b0565b50608082015161123c60808501826111b0565b5060a082015161124f60a085018261114e565b5060c082015161126260c08501826111cb565b50505050565b600061127483836111da565b60e08301905092915050565b6000602082019050919050565b600061129882611118565b6112a28185611123565b93506112ad83611134565b8060005b838110156112de5781516112c58882611268565b97506112d083611280565b9250506001810190506112b1565b5085935050505092915050565b60006020820190508181036000830152611305818461128d565b905092915050565b600080fd5b61131b81611144565b811461132657600080fd5b50565b60008135905061133881611312565b92915050565b6000602082840312156113545761135361130d565b5b600061136284828501611329565b91505092915050565b61137481611144565b82525050565b6113838161117d565b82525050565b6113928161119e565b82525050565b6113a1816111bf565b82525050565b600060e0820190506113bc600083018a61136b565b6113c9602083018961137a565b6113d6604083018861136b565b6113e36060830187611389565b6113f06080830186611389565b6113fd60a083018561136b565b61140a60c0830184611398565b98975050505050505050565b61141f8161117d565b811461142a57600080fd5b50565b60008135905061143c81611416565b92915050565b60008060006060848603121561145b5761145a61130d565b5b60006114698682870161142d565b935050602061147a86828701611329565b925050604061148b86828701611329565b9150509250925092565b600080604083850312156114ac576114ab61130d565b5b60006114ba8582860161142d565b92505060206114cb85828601611329565b9150509250929050565b60006020820190506114ea600083018461136b565b92915050565b7f4e487b7100000000000000000000000000000000000000000000000000000000600052601160045260246000fd5b600061152a82611144565b915061153583611144565b925082820390508181111561154d5761154c6114f0565b5b92915050565b7f4e487b7100000000000000000000000000000000000000000000000000000000600052604160045260246000fd5b7f4e487b7100000000000000000000000000000000000000000000000000000000600052603260045260246000fd5b60006115bc82611144565b91507fffffffffffffffffffffffffffffffffffffffffffffffffffffffffffffffff82036115ee576115ed6114f0565b5b600182019050919050565b600082825260208201905092915050565b7f50726963652063616e6e6f74206265207a65726f000000000000000000000000600082015250565b60006116406014836115f9565b915061164b8261160a565b602082019050919050565b6000602082019050818103600083015261166f81611633565b9050919050565b7f56616c7565206d75737420626520657175616c20746f206c697374696e67207060008201527f7269636500000000000000000000000000000000000000000000000000000000602082015250565b60006116d26024836115f9565b91506116dd82611676565b604082019050919050565b60006020820190508181036000830152611701816116c5565b9050919050565b600060608201905061171d600083018661137a565b61172a602083018561137a565b611737604083018461136b565b949350505050565b6000604082019050611754600083018561137a565b611761602083018461136b565b9392505050565b7f506c65617365207375626d6974207468652061736b696e67207072696365206960008201527f6e206f7264657220746f20636f6d706c65746520796f7572207075726368617360208201527f6500000000000000000000000000000000000000000000000000000000000000604082015250565b60006117ea6041836115f9565b91506117f582611768565b606082019050919050565b60006020820190508181036000830152611819816117dd565b905091905056fea26469706673582212206963f30c23d9c907b2a39c82d60251b6b1428c32d25e74cdbf2139e9f27bfe5764736f6c63430008180033",
  "linkReferences": {},
  "deployedLinkReferences": {}
}